{
  "contractName": "Kittycontract",
  "abi": [
    {
      "anonymous": false,
      "inputs": [
        {
          "indexed": true,
          "internalType": "address",
          "name": "owner",
          "type": "address"
        },
        {
          "indexed": true,
          "internalType": "address",
          "name": "approved",
          "type": "address"
        },
        {
          "indexed": true,
          "internalType": "uint256",
          "name": "tokenId",
          "type": "uint256"
        }
      ],
      "name": "Approval",
      "type": "event"
    },
    {
      "anonymous": false,
      "inputs": [
        {
          "indexed": true,
          "internalType": "address",
          "name": "from",
          "type": "address"
        },
        {
          "indexed": true,
          "internalType": "address",
          "name": "to",
          "type": "address"
        },
        {
          "indexed": true,
          "internalType": "uint256",
          "name": "tokenId",
          "type": "uint256"
        }
      ],
      "name": "Transfer",
      "type": "event"
    },
    {
      "constant": true,
      "inputs": [
        {
          "internalType": "uint256",
          "name": "",
          "type": "uint256"
        }
      ],
      "name": "kittyIndexToOwner",
      "outputs": [
        {
          "internalType": "address",
          "name": "",
          "type": "address"
        }
      ],
      "payable": false,
      "stateMutability": "view",
      "type": "function"
    },
    {
      "constant": true,
      "inputs": [],
      "name": "name",
      "outputs": [
        {
          "internalType": "string",
          "name": "",
          "type": "string"
        }
      ],
      "payable": false,
      "stateMutability": "view",
      "type": "function"
    },
    {
      "constant": true,
      "inputs": [],
      "name": "symbol",
      "outputs": [
        {
          "internalType": "string",
          "name": "",
          "type": "string"
        }
      ],
      "payable": false,
      "stateMutability": "view",
      "type": "function"
    },
    {
      "constant": true,
      "inputs": [
        {
          "internalType": "address",
          "name": "owner",
          "type": "address"
        }
      ],
      "name": "balanceOf",
      "outputs": [
        {
          "internalType": "uint256",
          "name": "balance",
          "type": "uint256"
        }
      ],
      "payable": false,
      "stateMutability": "view",
      "type": "function"
    },
    {
      "constant": true,
      "inputs": [],
      "name": "totalSupply",
      "outputs": [
        {
          "internalType": "uint256",
          "name": "",
          "type": "uint256"
        }
      ],
      "payable": false,
      "stateMutability": "view",
      "type": "function"
    },
    {
      "constant": true,
      "inputs": [
        {
          "internalType": "uint256",
          "name": "tokenId",
          "type": "uint256"
        }
      ],
      "name": "ownerOf",
      "outputs": [
        {
          "internalType": "address",
          "name": "",
          "type": "address"
        }
      ],
      "payable": false,
      "stateMutability": "view",
      "type": "function"
    },
    {
      "constant": false,
      "inputs": [
        {
          "internalType": "address",
          "name": "to",
          "type": "address"
        },
        {
          "internalType": "uint256",
          "name": "tokenId",
          "type": "uint256"
        }
      ],
      "name": "transfer",
      "outputs": [],
      "payable": false,
      "stateMutability": "nonpayable",
      "type": "function"
    }
  ],
  "bytecode": "0x608060405234801561001057600080fd5b5061071b806100206000396000f3fe608060405234801561001057600080fd5b506004361061007d5760003560e01c806370a082311161005b57806370a082311461019157806395d89b41146101e9578063a45f4bfc1461026c578063a9059cbb146102da5761007d565b806306fdde031461008257806318160ddd146101055780636352211e14610123575b600080fd5b61008a610328565b6040518080602001828103825283818151815260200191508051906020019080838360005b838110156100ca5780820151818401526020810190506100af565b50505050905090810190601f1680156100f75780820380516001836020036101000a031916815260200191505b509250505060405180910390f35b61010d610361565b6040518082815260200191505060405180910390f35b61014f6004803603602081101561013957600080fd5b810190808035906020019092919050505061036d565b604051808273ffffffffffffffffffffffffffffffffffffffff1673ffffffffffffffffffffffffffffffffffffffff16815260200191505060405180910390f35b6101d3600480360360208110156101a757600080fd5b81019080803573ffffffffffffffffffffffffffffffffffffffff1690602001909291905050506103aa565b6040518082815260200191505060405180910390f35b6101f16103f3565b6040518080602001828103825283818151815260200191508051906020019080838360005b83811015610231578082015181840152602081019050610216565b50505050905090810190601f16801561025e5780820380516001836020036101000a031916815260200191505b509250505060405180910390f35b6102986004803603602081101561028257600080fd5b810190808035906020019092919050505061042c565b604051808273ffffffffffffffffffffffffffffffffffffffff1673ffffffffffffffffffffffffffffffffffffffff16815260200191505060405180910390f35b610326600480360360408110156102f057600080fd5b81019080803573ffffffffffffffffffffffffffffffffffffffff1690602001909291908035906020019092919050505061045f565b005b6040518060400160405280600881526020017f446967694361747300000000000000000000000000000000000000000000000081525081565b60008080549050905090565b60006001600083815260200190815260200160002060009054906101000a900473ffffffffffffffffffffffffffffffffffffffff169050919050565b6000600260008373ffffffffffffffffffffffffffffffffffffffff1673ffffffffffffffffffffffffffffffffffffffff168152602001908152602001600020549050919050565b6040518060400160405280600381526020017f444743000000000000000000000000000000000000000000000000000000000081525081565b60016020528060005260406000206000915054906101000a900473ffffffffffffffffffffffffffffffffffffffff1681565b600073ffffffffffffffffffffffffffffffffffffffff168273ffffffffffffffffffffffffffffffffffffffff16141561049957600080fd5b3073ffffffffffffffffffffffffffffffffffffffff168273ffffffffffffffffffffffffffffffffffffffff1614156104d257600080fd5b6104dc33826104f4565b6104e557600080fd5b6104f0338383610560565b5050565b60008273ffffffffffffffffffffffffffffffffffffffff166001600084815260200190815260200160002060009054906101000a900473ffffffffffffffffffffffffffffffffffffffff1673ffffffffffffffffffffffffffffffffffffffff1614905092915050565b600260008373ffffffffffffffffffffffffffffffffffffffff1673ffffffffffffffffffffffffffffffffffffffff16815260200190815260200160002060008154809291906001019190505550816001600083815260200190815260200160002060006101000a81548173ffffffffffffffffffffffffffffffffffffffff021916908373ffffffffffffffffffffffffffffffffffffffff160217905550600073ffffffffffffffffffffffffffffffffffffffff163373ffffffffffffffffffffffffffffffffffffffff161461068657600260008473ffffffffffffffffffffffffffffffffffffffff1673ffffffffffffffffffffffffffffffffffffffff16815260200190815260200160002060008154809291906001900391905055505b808273ffffffffffffffffffffffffffffffffffffffff168473ffffffffffffffffffffffffffffffffffffffff167fddf252ad1be2c89b69c2b068fc378daa952ba7f163c4a11628f55a4df523b3ef60405160405180910390a450505056fea265627a7a7231582079dcdcc0564b71baaaf94dcb0666cf417da0fb6b7604041d4a6e20f85027527f64736f6c634300050c0032",
  "source": "pragma solidity 0.5.12;\r\n\r\nimport \"./IERC721.sol\";\r\n\r\ncontract Kittycontract is IERC721 {\r\n\r\n    string public constant name = \"DigiCats\"; //created token name\r\n    string public constant symbol = \"DGC\"; //created token symbol\r\n\r\n    //creating a kitty struct - items that kitty has\r\n    struct Kitty {\r\n        uint256 genes;\r\n        uint64 birthTime;\r\n        uint32 momId;\r\n        uint32 dadId;\r\n        uint16 generation;\r\n    }\r\n\r\n    Kitty[] kitties; //store kitty inside an array called kitties, ID is position in array\r\n\r\n    mapping(uint256 => address) public kittyIndexToOwner; //tying the cat ID and ties it to the owner\r\n    mapping(address => uint256) private ownershipTokenCount; //takes the address and gives us the number of cats owned\r\n\r\n    //we have some events that we need to emit\r\n    event Transfer(address indexed from, address indexed to, uint256 indexed tokenId);\r\n    event Approval(address indexed owner, address indexed approved, uint256 indexed tokenId);\r\n\r\n    //this function gives us how many kitties particular address owns\r\n    function balanceOf(address owner) external view returns (uint256 balance){\r\n        return ownershipTokenCount[owner];\r\n    }\r\n\r\n    //returns the length of kitties array\r\n    function totalSupply() public view returns (uint){\r\n        return kitties.length;\r\n    }\r\n\r\n    //returns address that owns the particular cat ID\r\n    function ownerOf(uint256 tokenId) external view returns (address){\r\n        return kittyIndexToOwner[tokenId];\r\n    }\r\n\r\n    //transfer the kitty to another person\r\n    function transfer(address to, uint256 tokenId) external{\r\n        require(to != address (0)); //cannot be sent to 0 address\r\n        require(to != address (this)); //cannot be sent to contract address\r\n        require(owns(msg.sender, tokenId)); //calls \"own\" function --> see below\r\n      \r\n        transferKitty(msg.sender, to, tokenId); //executes the transfer function\r\n    }\r\n\r\n    function transferKitty(address from, address to, uint256 tokenId) internal{\r\n        ownershipTokenCount[to]++; //increasing token count to recipient\r\n        kittyIndexToOwner[tokenId] = to; //connect new owner with kitty ID\r\n\r\n        //this makes sure that if it's not a brand new kitty, it's taken out of the senders address\r\n        if(msg.sender != address(0)){\r\n            ownershipTokenCount[from]--;\r\n        }\r\n\r\n         emit Transfer(from, to, tokenId); //emit the event that transfer took place\r\n    }\r\n\r\n    //function that ensures that person transfering the kitty actually owns it\r\n    function owns(address seller, uint tokenId) internal view returns (bool){\r\n        return kittyIndexToOwner[tokenId] == seller;\r\n    }\r\n}",
  "sourcePath": "C:\\Users\\nevk7\\Documents\\GitHub\\CryptoNFTdApp\\contracts\\Kittycontract.sol",
  "compiler": {
    "name": "solc",
    "version": "0.5.12+commit.7709ece9.Emscripten.clang"
  },
  "schemaVersion": "3.2.0",
  "updatedAt": "2020-08-23T22:06:23.543Z",
  "networkType": "ethereum",
  "devdoc": {
    "methods": {}
  },
  "userdoc": {
    "methods": {}
  }
}