{
  "contractName": "Kittycontract",
  "abi": [
    {
      "anonymous": false,
      "inputs": [
        {
          "indexed": true,
          "internalType": "address",
          "name": "owner",
          "type": "address"
        },
        {
          "indexed": true,
          "internalType": "address",
          "name": "approved",
          "type": "address"
        },
        {
          "indexed": true,
          "internalType": "uint256",
          "name": "tokenId",
          "type": "uint256"
        }
      ],
      "name": "Approval",
      "type": "event"
    },
    {
      "anonymous": false,
      "inputs": [
        {
          "indexed": false,
          "internalType": "address",
          "name": "owner",
          "type": "address"
        },
        {
          "indexed": false,
          "internalType": "uint256",
          "name": "kittenId",
          "type": "uint256"
        },
        {
          "indexed": false,
          "internalType": "uint256",
          "name": "momId",
          "type": "uint256"
        },
        {
          "indexed": false,
          "internalType": "uint256",
          "name": "dadId",
          "type": "uint256"
        },
        {
          "indexed": false,
          "internalType": "uint256",
          "name": "genes",
          "type": "uint256"
        }
      ],
      "name": "Birth",
      "type": "event"
    },
    {
      "anonymous": false,
      "inputs": [
        {
          "indexed": true,
          "internalType": "address",
          "name": "from",
          "type": "address"
        },
        {
          "indexed": true,
          "internalType": "address",
          "name": "to",
          "type": "address"
        },
        {
          "indexed": true,
          "internalType": "uint256",
          "name": "tokenId",
          "type": "uint256"
        }
      ],
      "name": "Transfer",
      "type": "event"
    },
    {
      "constant": true,
      "inputs": [],
      "name": "CREATION_LIMIT_GEN0",
      "outputs": [
        {
          "internalType": "uint256",
          "name": "",
          "type": "uint256"
        }
      ],
      "payable": false,
      "stateMutability": "view",
      "type": "function"
    },
    {
      "constant": true,
      "inputs": [],
      "name": "gen0Counter",
      "outputs": [
        {
          "internalType": "uint256",
          "name": "",
          "type": "uint256"
        }
      ],
      "payable": false,
      "stateMutability": "view",
      "type": "function"
    },
    {
      "constant": true,
      "inputs": [
        {
          "internalType": "uint256",
          "name": "",
          "type": "uint256"
        }
      ],
      "name": "kittyIndexToOwner",
      "outputs": [
        {
          "internalType": "address",
          "name": "",
          "type": "address"
        }
      ],
      "payable": false,
      "stateMutability": "view",
      "type": "function"
    },
    {
      "constant": true,
      "inputs": [],
      "name": "name",
      "outputs": [
        {
          "internalType": "string",
          "name": "",
          "type": "string"
        }
      ],
      "payable": false,
      "stateMutability": "view",
      "type": "function"
    },
    {
      "constant": true,
      "inputs": [],
      "name": "owner",
      "outputs": [
        {
          "internalType": "address",
          "name": "",
          "type": "address"
        }
      ],
      "payable": false,
      "stateMutability": "view",
      "type": "function"
    },
    {
      "constant": true,
      "inputs": [],
      "name": "symbol",
      "outputs": [
        {
          "internalType": "string",
          "name": "",
          "type": "string"
        }
      ],
      "payable": false,
      "stateMutability": "view",
      "type": "function"
    },
    {
      "constant": false,
      "inputs": [
        {
          "internalType": "uint256",
          "name": "_genes",
          "type": "uint256"
        }
      ],
      "name": "createKittyGen0",
      "outputs": [
        {
          "internalType": "uint256",
          "name": "",
          "type": "uint256"
        }
      ],
      "payable": false,
      "stateMutability": "nonpayable",
      "type": "function"
    },
    {
      "constant": true,
      "inputs": [
        {
          "internalType": "uint256",
          "name": "_id",
          "type": "uint256"
        }
      ],
      "name": "getKitty",
      "outputs": [
        {
          "internalType": "uint256",
          "name": "genes",
          "type": "uint256"
        },
        {
          "internalType": "uint256",
          "name": "birthTime",
          "type": "uint256"
        },
        {
          "internalType": "uint256",
          "name": "momId",
          "type": "uint256"
        },
        {
          "internalType": "uint256",
          "name": "dadId",
          "type": "uint256"
        },
        {
          "internalType": "uint256",
          "name": "generation",
          "type": "uint256"
        }
      ],
      "payable": false,
      "stateMutability": "view",
      "type": "function"
    },
    {
      "constant": true,
      "inputs": [
        {
          "internalType": "address",
          "name": "owner",
          "type": "address"
        }
      ],
      "name": "balanceOf",
      "outputs": [
        {
          "internalType": "uint256",
          "name": "balance",
          "type": "uint256"
        }
      ],
      "payable": false,
      "stateMutability": "view",
      "type": "function"
    },
    {
      "constant": true,
      "inputs": [],
      "name": "totalSupply",
      "outputs": [
        {
          "internalType": "uint256",
          "name": "",
          "type": "uint256"
        }
      ],
      "payable": false,
      "stateMutability": "view",
      "type": "function"
    },
    {
      "constant": true,
      "inputs": [
        {
          "internalType": "uint256",
          "name": "tokenId",
          "type": "uint256"
        }
      ],
      "name": "ownerOf",
      "outputs": [
        {
          "internalType": "address",
          "name": "",
          "type": "address"
        }
      ],
      "payable": false,
      "stateMutability": "view",
      "type": "function"
    },
    {
      "constant": false,
      "inputs": [
        {
          "internalType": "address",
          "name": "to",
          "type": "address"
        },
        {
          "internalType": "uint256",
          "name": "tokenId",
          "type": "uint256"
        }
      ],
      "name": "transfer",
      "outputs": [],
      "payable": false,
      "stateMutability": "nonpayable",
      "type": "function"
    }
  ],
  "bytecode": "0x6080604052336000806101000a81548173ffffffffffffffffffffffffffffffffffffffff021916908373ffffffffffffffffffffffffffffffffffffffff160217905550610bfd806100536000396000f3fe608060405234801561001057600080fd5b50600436106100b45760003560e01c8063a45f4bfc11610071578063a45f4bfc146102ed578063a9059cbb1461035b578063b4834330146103a9578063d5a776ca146103c7578063e98b7f4d14610409578063ef5e94aa14610467576100b4565b806306fdde03146100b957806318160ddd1461013c5780636352211e1461015a57806370a08231146101c85780638da5cb5b1461022057806395d89b411461026a575b600080fd5b6100c1610485565b6040518080602001828103825283818151815260200191508051906020019080838360005b838110156101015780820151818401526020810190506100e6565b50505050905090810190601f16801561012e5780820380516001836020036101000a031916815260200191505b509250505060405180910390f35b6101446104be565b6040518082815260200191505060405180910390f35b6101866004803603602081101561017057600080fd5b81019080803590602001909291905050506104cb565b604051808273ffffffffffffffffffffffffffffffffffffffff1673ffffffffffffffffffffffffffffffffffffffff16815260200191505060405180910390f35b61020a600480360360208110156101de57600080fd5b81019080803573ffffffffffffffffffffffffffffffffffffffff169060200190929190505050610508565b6040518082815260200191505060405180910390f35b610228610551565b604051808273ffffffffffffffffffffffffffffffffffffffff1673ffffffffffffffffffffffffffffffffffffffff16815260200191505060405180910390f35b610272610576565b6040518080602001828103825283818151815260200191508051906020019080838360005b838110156102b2578082015181840152602081019050610297565b50505050905090810190601f1680156102df5780820380516001836020036101000a031916815260200191505b509250505060405180910390f35b6103196004803603602081101561030357600080fd5b81019080803590602001909291905050506105af565b604051808273ffffffffffffffffffffffffffffffffffffffff1673ffffffffffffffffffffffffffffffffffffffff16815260200191505060405180910390f35b6103a76004803603604081101561037157600080fd5b81019080803573ffffffffffffffffffffffffffffffffffffffff169060200190929190803590602001909291905050506105e2565b005b6103b1610677565b6040518082815260200191505060405180910390f35b6103f3600480360360208110156103dd57600080fd5b810190808035906020019092919050505061067c565b6040518082815260200191505060405180910390f35b6104356004803603602081101561041f57600080fd5b810190808035906020019092919050505061070e565b604051808681526020018581526020018481526020018381526020018281526020019550505050505060405180910390f35b61046f6107bd565b6040518082815260200191505060405180910390f35b6040518060400160405280600881526020017f446967694361747300000000000000000000000000000000000000000000000081525081565b6000600180549050905090565b60006002600083815260200190815260200160002060009054906101000a900473ffffffffffffffffffffffffffffffffffffffff169050919050565b6000600360008373ffffffffffffffffffffffffffffffffffffffff1673ffffffffffffffffffffffffffffffffffffffff168152602001908152602001600020549050919050565b6000809054906101000a900473ffffffffffffffffffffffffffffffffffffffff1681565b6040518060400160405280600381526020017f444743000000000000000000000000000000000000000000000000000000000081525081565b60026020528060005260406000206000915054906101000a900473ffffffffffffffffffffffffffffffffffffffff1681565b600073ffffffffffffffffffffffffffffffffffffffff168273ffffffffffffffffffffffffffffffffffffffff16141561061c57600080fd5b3073ffffffffffffffffffffffffffffffffffffffff168273ffffffffffffffffffffffffffffffffffffffff16141561065557600080fd5b61065f33826107c3565b61066857600080fd5b61067333838361082f565b5050565b601481565b60008060009054906101000a900473ffffffffffffffffffffffffffffffffffffffff1673ffffffffffffffffffffffffffffffffffffffff163373ffffffffffffffffffffffffffffffffffffffff16146106d757600080fd5b6014600454106106e657600080fd5b600460008154809291906001019190505550610707600080600085336109b5565b9050919050565b6000806000806000806001878154811061072457fe5b906000526020600020906002020190508060010160009054906101000a900467ffffffffffffffff1667ffffffffffffffff1694508060010160089054906101000a900463ffffffff1663ffffffff16935080600101600c9054906101000a900463ffffffff1663ffffffff1692508060010160109054906101000a900461ffff1661ffff169150806000015495505091939590929450565b60045481565b60008273ffffffffffffffffffffffffffffffffffffffff166002600084815260200190815260200160002060009054906101000a900473ffffffffffffffffffffffffffffffffffffffff1673ffffffffffffffffffffffffffffffffffffffff1614905092915050565b600360008373ffffffffffffffffffffffffffffffffffffffff1673ffffffffffffffffffffffffffffffffffffffff16815260200190815260200160002060008154809291906001019190505550816002600083815260200190815260200160002060006101000a81548173ffffffffffffffffffffffffffffffffffffffff021916908373ffffffffffffffffffffffffffffffffffffffff160217905550600073ffffffffffffffffffffffffffffffffffffffff163373ffffffffffffffffffffffffffffffffffffffff161461095557600360008473ffffffffffffffffffffffffffffffffffffffff1673ffffffffffffffffffffffffffffffffffffffff16815260200190815260200160002060008154809291906001900391905055505b808273ffffffffffffffffffffffffffffffffffffffff168473ffffffffffffffffffffffffffffffffffffffff167fddf252ad1be2c89b69c2b068fc378daa952ba7f163c4a11628f55a4df523b3ef60405160405180910390a4505050565b60006109bf610b7f565b6040518060a001604052808581526020014267ffffffffffffffff1681526020018863ffffffff1681526020018763ffffffff1681526020018661ffff168152509050600060018083908060018154018082558091505090600182039060005260206000209060020201600090919290919091506000820151816000015560208201518160010160006101000a81548167ffffffffffffffff021916908367ffffffffffffffff16021790555060408201518160010160086101000a81548163ffffffff021916908363ffffffff160217905550606082015181600101600c6101000a81548163ffffffff021916908363ffffffff16021790555060808201518160010160106101000a81548161ffff021916908361ffff16021790555050500390507f0a5311bd2a6608f08a180df2ee7c5946819a649b204b554bb8e39825b2c50ad584828a8a89604051808673ffffffffffffffffffffffffffffffffffffffff1673ffffffffffffffffffffffffffffffffffffffff1681526020018581526020018481526020018381526020018281526020019550505050505060405180910390a1610b716000858361082f565b809250505095945050505050565b6040518060a0016040528060008152602001600067ffffffffffffffff168152602001600063ffffffff168152602001600063ffffffff168152602001600061ffff168152509056fea265627a7a723158208d8d5ddfc238484ce342323fed726d62928fa72980bca34d938c8df4b1b9bd9e64736f6c634300050c0032",
  "source": "pragma solidity 0.5.12;\r\n\r\nimport \"./IERC721.sol\";\r\nimport \"./Ownable.sol\";\r\n\r\ncontract Kittycontract is IERC721, Ownable {\r\n\r\n    uint256 public constant CREATION_LIMIT_GEN0 = 20;\r\n    string public constant name = \"DigiCats\"; //created token name\r\n    string public constant symbol = \"DGC\"; //created token symbol\r\n\r\n    //we have some events that we need to emit & can be used for the website\r\n    event Birth(address owner, uint256 kittenId, uint256 momId, uint256 dadId, uint256 genes);\r\n\r\n    //creating a kitty struct - items that kitty has\r\n    struct Kitty {\r\n        uint256 genes;\r\n        uint64 birthTime;\r\n        uint32 momId;\r\n        uint32 dadId;\r\n        uint16 generation;\r\n    }\r\n\r\n    Kitty[] kitties; //store kitty inside an array called kitties, ID is position in array\r\n\r\n    mapping(uint256 => address) public kittyIndexToOwner; //tying the cat ID and ties it to the owner\r\n    mapping(address => uint256) private ownershipTokenCount; //takes the address and gives us the number of cats owned\r\n\r\n    uint256 public gen0Counter; //keep track of gen0 cats\r\n\r\n    function createKittyGen0(uint256 _genes) public onlyOwner returns (uint256) {\r\n        require(gen0Counter < CREATION_LIMIT_GEN0); //require limited number of gen0 cats -- must have constant\r\n\r\n        gen0Counter++; //add to the counter\r\n\r\n        //actual creation of the kitty, passing 0 momid, 0 dadId, 0 gen, then genes from input and owner\r\n        return _createKitty(0, 0, 0, _genes, msg.sender);\r\n        //for the owner, it can also go to \"address(this)\" --> basically the contract itself,\r\n        //then cats can be sold, auctioned off, etc.\r\n    }\r\n\r\n    //internal function to create kitty that takes arguments\r\n    function _createKitty(\r\n        uint256 _momId,\r\n        uint256 _dadId,\r\n        uint256 _generation,\r\n        uint256 _genes,\r\n        address _owner\r\n    ) private returns (uint256) { //returns cat ID - needs to be \"internal\"\r\n        //to create new kitty, we specify struct parameters by using the name of the struct\r\n        Kitty memory _kitty = Kitty({\r\n            genes: _genes,\r\n            birthTime: uint64(now), //unix timestamp in seconds\r\n            momId: uint32(_momId), //convert uint256 to uint32 - easier to input256 and convert\r\n            dadId: uint32(_dadId),\r\n            generation: uint16(_generation)\r\n        });\r\n\r\n        //this creates new cat and places it in array, then assigns ID that takes it down to zero\r\n        uint256 newKittenId = kitties.push(_kitty) - 1;  \r\n\r\n        emit Birth(_owner, newKittenId, _momId, _dadId, _genes);\r\n\r\n        //to create new cat it needs to be sent from zero address, then onto the owner and needs to get cat ID\r\n        _transfer(address(0), _owner, newKittenId);\r\n\r\n        return newKittenId;\r\n    }\r\n\r\n    function getKitty(uint256 _id) external view returns(\r\n        uint256 genes, \r\n        uint256 birthTime, \r\n        uint256 momId, \r\n        uint256 dadId, \r\n        uint256 generation){\r\n        \r\n        Kitty storage kitty = kitties[_id]; //this gives us ability to point to mapping and not make a copy of it\r\n\r\n        birthTime = uint256(kitty.birthTime);\r\n        momId = uint256(kitty.momId);\r\n        dadId = uint256(kitty.dadId);\r\n        generation = uint256(kitty.generation);\r\n        genes = kitty.genes;\r\n\r\n        //another way to do this function is under returns to just specify: uint256 without specific names,\r\n        //then use return(birthTime, momId, dadId...)\r\n    }\r\n\r\n    //this function gives us how many kitties particular address owns\r\n    function balanceOf(address owner) external view returns (uint256 balance){\r\n        return ownershipTokenCount[owner];\r\n    }\r\n\r\n    //returns the length of kitties array\r\n    function totalSupply() public view returns (uint){\r\n        return kitties.length;\r\n    }\r\n\r\n    //returns address that owns the particular cat ID\r\n    function ownerOf(uint256 tokenId) external view returns (address){\r\n        return kittyIndexToOwner[tokenId];\r\n    }\r\n\r\n    //transfer the kitty to another person\r\n    function transfer(address to, uint256 tokenId) external{\r\n        require(to != address (0)); //cannot be sent to 0 address\r\n        require(to != address (this)); //cannot be sent to contract address\r\n        require(_owns(msg.sender, tokenId)); //calls \"_own\" function --> see below\r\n      \r\n        _transfer(msg.sender, to, tokenId); //executes the transfer function\r\n    }\r\n\r\n    function _transfer(address from, address to, uint256 tokenId) internal{\r\n        ownershipTokenCount[to]++; //increasing token count to recipient\r\n        kittyIndexToOwner[tokenId] = to; //connect new owner with kitty ID\r\n\r\n        //this makes sure that if it's not a brand new kitty, it's taken out of the senders address\r\n        if(msg.sender != address(0)){\r\n            ownershipTokenCount[from]--;\r\n        }\r\n\r\n         emit Transfer(from, to, tokenId); //emit the event that transfer took place\r\n    }\r\n\r\n    //function that ensures that person transfering the kitty actually owns it\r\n    function _owns(address seller, uint tokenId) internal view returns (bool){\r\n        return kittyIndexToOwner[tokenId] == seller;\r\n    }\r\n}",
  "sourcePath": "C:\\Users\\nevk7\\Documents\\GitHub\\CryptoNFTdApp\\contracts\\Kittycontract.sol",
  "compiler": {
    "name": "solc",
    "version": "0.5.12+commit.7709ece9.Emscripten.clang"
  },
  "schemaVersion": "3.2.0",
  "updatedAt": "2020-08-27T20:58:28.735Z",
  "networkType": "ethereum",
  "devdoc": {
    "methods": {}
  },
  "userdoc": {
    "methods": {}
  }
}